:020000040800F2
:1000000000000220A9720008516700085F6700081D
:10001000656700086B670008716700080000000052
:1000200000000000000000000000000077670008EA
:10003000856700080000000093670008A1670008BA
:10004000F9720008F9720008F9720008F9720008E4
:10005000F9720008F9720008AD670008F97200082B
:10006000F9720008F9720008F9720008F9720008C4
:10007000F9720008F9720008F9720008F9720008B4
:10008000F9720008F9720008F9720008F9720008A4
:10009000F9720008F9720008F9720008F972000894
:1000A000F9720008F9720008F9720008F972000884
:1000B000F9720008F9720008F9720008F972000874
:1000C000F9720008F9720008F9720008F972000864
:1000D000F9720008F9720008F9720008F972000854
:1000E000BB670008F9720008F9720008F97200088D
:1000F000F9720008F9720008F9720008F972000834
:10010000F9720008F9720008F9720008F972000823
:10011000F9720008F9720008F9720008F972000813
:10012000F9720008F9720008F9720008F972000803
:10013000F9720008F9720008F9720008F9720008F3
:10014000F9720008F9720008F9720008D567000812
:10015000F9720008F9720008F9720008F9720008D3
:10016000F9720008F9720008F9720008F9720008C3
:10017000F9720008F9720008F97200080000000026
:08018000F9720008F972000891
:1001880010B5054C237833B9044B13B10448AFF3C9
:1001980000800123237010BDA4000020000000008F
:1001A800FC74000808B5034B1BB103490348AFF3BF
:1001B800008008BD00000000A8000020FC740008B2
:1001C80053B94AB9002908BF00281CBF4FF0FF31B6
:1001D8004FF0FF3000F07AB9ADF1080C6DE904CEAC
:1001E80000F006F8DDF804E0DDE9022304B070470A
:1001F8002DE9F0478C460D460446089E002B51D148
:100208008A4217466DD9B2FA82FEBEF1000F0BD0B2
:10021800CEF1200C01FA0EF520FA0CFC02FA0EF7CA
:100228004CEA050C00FA0EF44FEA174A250CBCFB01
:10023800FAF81FFA87F90AFB18CC45EA0C4508FBBF
:1002480009F3AB420AD9ED1908F1FF3280F0238196
:10025800AB4240F22081A8F102083D44ED1AA4B255
:10026800B5FBFAF00AFB105544EA054400FB09F90E
:10027800A14509D9E41900F1FF3380F00A81A145AD
:1002880040F2078102383C44A4EB090440EA0840E4
:100298000021002E61D024FA0EF40023346073602C
:1002A800BDE8F0878B4207D9002E54D0002186E89C
:1002B80021000846BDE8F087B3FA83F1002940F031
:1002C8008E80AB4202D3824200F2FA80841A65EB38
:1002D80003050120AC46002E3FD086E81010BDE88B
:1002E800F08712B90127B7FBF2F7B7FA87FEBEF11C
:1002F800000F34D1EB1B3A0C1FFA87FC0121B3FB2A
:10030800F2F8250C02FB183345EA03450CFB08F309
:10031800AB4207D9ED1908F1FF3002D2AB4200F227
:10032800D1808046ED1AA3B2B5FBF2F002FB10555E
:1003380043EA05440CFB00FCA44507D9E41900F185
:10034800FF3302D2A44500F2B8801846A4EB0C048F
:1003580040EA08409DE731463046BDE8F087CEF1D7
:10036800200405FA0EF307FA0EF720FA04F83A0CFF
:1003780025FA04F448EA0308B4FBF2F14FEA1845F9
:1003880002FB11441FFA87FC45EA044501FB0CF304
:10039800AB4200FA0EF409D9ED1901F1FF3080F0F3
:1003A8008A80AB4240F2878002393D44EB1A1FFA3B
:1003B80088F5B3FBF2F002FB103345EA034500FB76
:1003C8000CF3AB4207D9ED1900F1FF386FD2AB42FD
:1003D8006DD902383D44EB1A40EA01418FE7C1F17B
:1003E800200722FA07F88B4005FA01F448EA0303CC
:1003F80020FA07FE4FEA134CFD404EEA040EB5FB07
:10040800FCF94FEA1E440CFB19551FFA83F844EA1D
:10041800054509FB08F4AC4202FA01F200FA01FAB8
:1004280008D9ED1809F1FF3043D2AC4241D9A9F1FE
:1004380002091D442D1B1FFA8EFEB5FBFCF00CFBB8
:1004480010554EEA054400FB08F8A04507D9E41802
:1004580000F1FF3529D2A04527D902381C4440EACB
:100468000940A4EB0804A0FB02894C45C6464D464A
:1004780015D312D056B1BAEB0E0364EB050404FA97
:1004880007F7CB401F43CC40376074600021BDE8BC
:10049800F0871846F8E69046E0E6C245EAD2B8EB9F
:1004A800020E69EB03050138E4E72846D7E7404622
:1004B80091E78146BEE7014678E702383C4445E7C4
:1004C800084608E7A8F102083D442BE7704700BF3B
:1004D80080B500AF0E4A0E4B1B6843F400731360DF
:1004E8000B4A0B4B1B6843F480631360084A084BA4
:1004F8001B6843F480731360032000F04BF900205D
:1005080000F008F806F020F80023184680BD00BF68
:10051800003C024080B582B000AF7860124B1A6888
:10052800124B1B7819464FF47A73B3FBF1F3B2FB05
:10053800F3F3184600F063F90346002B01D00123BA
:100548000EE07B680F2B0AD8002279684FF0FF3045
:1005580000F02BF9064A7B681360002300E00123B2
:1005680018460837BD4680BD38000020040000202A
:100578000000002080B400AF064B1B781A46064BDB
:100588001B681344044A136000BFBD465DF8047B32
:10059800704700BF04000020E404002080B400AFCE
:1005A800034B1B681846BD465DF8047B704700BFC7
:1005B800E404002080B584B000AF7860FFF7EEFF58
:1005C800B8607B68FB60FB68B3F1FF3F05D0094B5F
:1005D8001B781A46FB681344FB6000BFFFF7DEFF79
:1005E8000246BB68D21AFB689A42F7D300BF10379D
:1005F800BD4680BD0400002080B485B000AF78609F
:100608007B6803F00703FB600C4BDB68BB60BA68D0
:100618004FF6FF031340BB60FB681A02BB68134325
:1006280043F0BF6343F40033BB60044ABB68D36044
:1006380000BF1437BD465DF8047B704700ED00E04D
:1006480080B400AF044BDB681B0A03F007031846AD
:10065800BD465DF8047B704700ED00E080B483B0D0
:1006680000AF0346FB7197F90730002B0BDB0949F4
:1006780097F907305B09FA7902F01F02012000FAA6
:1006880002F241F8232000BF0C37BD465DF8047B19
:10069800704700BF00E100E080B483B000AF0346BC
:1006A8003960FB7197F90730002B0ADB0D4997F980
:1006B80007303A68D2B21201D2B20B4483F8002351
:1006C8000AE00949FB7903F00F03043B3A68D2B208
:1006D8001201D2B20B441A7600BF0C37BD465DF842
:1006E800047B704700E100E000ED00E080B489B0D1
:1006F80000AFF860B9607A60FB6803F00703FB613C
:10070800FB69C3F10703042B28BF0423BB61FB6902
:100718000433062B02D9FB69033B00E000237B610D
:100728000122BB6902FA03F35A1EBB681A407B69AF
:100738009A4001217B6901FA03F3591E7B680B403B
:10074800134318462437BD465DF8047B7047000004
:1007580080B582B000AF78607B68013BB3F1807FE1
:1007680001D301230FE00A4A7B68013B53600F2144
:100778004FF0FF30FFF790FF054B00229A60044BC3
:1007880007221A60002318460837BD4680BD00BFFF
:1007980010E000E080B582B000AF78607868FFF7BD
:1007A8002BFF00BF0837BD4680BD80B586B000AFBF
:1007B8000346B9607A60FB7300237B61FFF740FF53
:1007C80078617A68B9687869FFF790FF024697F907
:1007D8000F3011461846FFF75FFF00BF1837BD46B8
:1007E80080BD80B582B000AF0346FB7197F9073032
:1007F8001846FFF733FF00BF0837BD4680BD80B5F8
:1008080082B000AF78607868FFF7A2FF0346184609
:100818000837BD4680BD000080B489B000AF78605D
:10082800396000237B6100233B610023BB61002307
:10083800FB616BE10122FB6902FA03F37B613B6810
:100848001A687B6913403B613A697B699A4240F0B8
:100858005A813B685B68022B03D03B685B68122BAC
:1008680023D1FB69DA087B68083253F82230BB6170
:10087800FB6903F007039B000F2202FA03F3DB4333
:10088800BA691340BB613B681A69FB6903F0070347
:100898009B0002FA03F3BA691343BB61FB69DA08E8
:1008A8007B680832B96943F822107B681B68BB6112
:1008B800FB695B00032202FA03F3DB43BA691340C6
:1008C800BB613B685B6803F00302FB695B0002FAEB
:1008D80003F3BA691343BB617B68BA691A603B6862
:1008E8005B68012B0BD03B685B68022B07D03B6829
:1008F8005B68112B03D03B685B68122B30D17B6897
:100908009B68BB61FB695B00032202FA03F3DB43CC
:10091800BA691340BB613B68DA68FB695B0002FA9D
:1009280003F3BA691343BB617B68BA699A607B6851
:100938005B68BB610122FB6902FA03F3DB43BA6916
:100948001340BB613B685B681B0903F00102FB694C
:1009580002FA03F3BA691343BB617B68BA695A6048
:100968007B68DB68BB61FB695B00032202FA03F367
:10097800DB43BA691340BB613B689A68FB695B005B
:1009880002FA03F3BA691343BB617B68BA69DA6098
:100998003B685B6803F08053002B00F0B4800023B1
:1009A800FB605F4A5E4B5B6C43F4804353645C4B73
:1009B8005B6C03F48043FB60FB685A4AFB699B0845
:1009C800023352F82330BB61FB6903F003039B0039
:1009D8000F2202FA03F3DB43BA691340BB617B6859
:1009E800514A93422BD07B68504A934225D07B686A
:1009F8004F4A93421FD07B684E4A934219D07B6876
:100A08004D4A934213D07B684C4A93420DD07B6881
:100A18004B4A934207D07B684A4A934201D1072345
:100A28000EE008230CE006230AE0052308E004236F
:100A380006E0032304E0022302E0012300E0002390
:100A4800FA6902F0030292009340BA691343BB614A
:100A58003449FB699B080233BA6941F823203A4BB1
:100A68001B68BB613B69DB43BA691340BB613B68E8
:100A78005B6803F48033002B03D0BA693B691343E6
:100A8800BB61314ABB6913602F4B5B68BB613B6933
:100A9800DB43BA691340BB613B685B6803F400330E
:100AA800002B03D0BA693B691343BB61264ABB6973
:100AB8005360254B9B68BB613B69DB43BA691340B4
:100AC800BB613B685B6803F48013002B03D0BA69F1
:100AD8003B691343BB611C4ABB6993601A4BDB68D3
:100AE800BB613B69DB43BA691340BB613B685B6828
:100AF80003F40013002B03D0BA693B691343BB61AD
:100B0800114ABB69D360FB690133FB61FB690F2B99
:100B18007FF690AE00BF2437BD465DF8047B704772
:100B28000038024000380140000002400004024042
:100B380000080240000C024000100240001402406D
:100B480000180240001C0240003C014080B483B001
:100B580000AF78600B467B8013467B707B78002B58
:100B680003D07A887B689A6103E07B881A047B68E3
:100B78009A6100BF0C37BD465DF8047B70470000E2
:100B880080B582B000AF0346FB80084B5A69FB88EA
:100B98001340002B06D0054AFB885361FB88184692
:100BA80005F096FC00BF0837BD4680BD003C0140FB
:100BB800F0B58DB00AAF78607B68002B01D10123B6
:100BC80048E07B6893F8B932DBB2002B06D17B682A
:100BD800002283F8B822786805F0C2FE7B680322F9
:100BE80083F8B9227B681B68184602F0D9FC7B6839
:100BF8001B683B607E686D4606F110040FCC0FC57C
:100C08000FCC0FC594E8030085E80300331D0ECB15
:100C1800386802F053FC7B681B680121184602F013
:100C2800D0FC7B681B683B607E686D4606F110044B
:100C38000FCC0FC50FCC0FC594E8030085E803005F
:100C4800331D0ECB386802F0E3FD7B68012283F880
:100C5800B922002318460C37BD46F0BD90B589B0BF
:100C680004AF7860084611461A460346FB700B46E7
:100C7800BB7013467B707B6893F8B832012B01D1A7
:100C880002237FE07B68012283F8B822FA7879682A
:100C980013469B001344DB000B443D3300221A70BB
:100CA800FA78796813469B001344DB000B44383309
:100CB8007A781A70FA78796813469B001344DB0037
:100CC8000B4440333A8D1A80FA78796813469B00B2
:100CD8001344DB000B443933FA781A70FA787968D0
:100CE80013469B001344DB000B443F3397F8242042
:100CF8001A70FA78BB7803F07F03D8B27968134684
:100D08009B001344DB000B443A3302461A7097F9F0
:100D18000230002B0ADAFA78796813469B001344EC
:100D2800DB000B443B3301221A7009E0FA7879683A
:100D380013469B001344DB000B443B3300221A701C
:100D4800FA78796813469B001344DB000B443C3364
:100D580097F820201A707B6818687C78BA78F97838
:100D68003B8D029397F82430019397F82030009335
:100D7800234602F0D7FE0346FB737B68002283F804
:100D8800B822FB7B18461437BD4690BD80B584B0A9
:100D980000AF78600B46FB700023FB737B6893F809
:100DA800B832012B01D102230FE07B68012283F8BE
:100DB800B8227B681B68FA781146184603F01DF9BB
:100DC8007B68002283F8B822FB7B18461037BD46A3
:100DD80080BD000080B582B000AF7860084611463B
:100DE8001A460346FB700B46BB7013467B70FA78B5
:100DF800796813469B001344DB000B443B33BA78F5
:100E08001A70FA78796813469B001344DB000B4488
:100E18003F337A781A703B7C002B0AD1FA787968CC
:100E280013469B001344DB000B44423303221A7021
:100E380009E0FA78796813469B001344DB000B44F9
:100E4800423302221A707B78032B00F2D68001A26B
:100E580052F823F06D0E0008ED0F0008D90E0008B7
:100E6800630F00083B7C012B40F0C980BB78002B46
:100E780040F0C5803B8B002B09D1FA78796813467E
:100E88009B001344DB000B44513301221A70FA789B
:100E9800796813469B001344DB000B4451331B78DD
:100EA800002B0AD1FA78796813469B001344DB00BB
:100EB8000B44423300221A70A1E0FA78796813468D
:100EC8009B001344DB000B44423302221A7096E065
:100ED800BB78002B20D1FA78796813469B0013441D
:100EE800DB000B4451331B78002B0AD1FA78796860
:100EF80013469B001344DB000B44423300221A7054
:100F08007EE0FA78796813469B001344DB000B44B3
:100F1800423302221A7073E0FA78796813469B000C
:100F28001344DB000B4450331B78002B0AD1FA78AA
:100F3800796813469B001344DB000B4442330022BC
:100F48001A705DE0FA78796813469B001344DB0059
:100F58000B44423302221A7052E0BB78002B20D196
:100F6800FA78796813469B001344DB000B4451332D
:100F78001B78002B0AD1FA78796813469B00134432
:100F8800DB000B44423300221A7039E0FA787968A2
:100F980013469B001344DB000B44423302221A70B1
:100FA8002EE0FA78796813469B001344DB000B4463
:100FB80050331B78002B0AD1FA78796813469B00C6
:100FC8001344DB000B44423300221A7018E0FA780D
:100FD800796813469B001344DB000B44423302221A
:100FE8001A700DE0FA78796813469B001344DB0009
:100FF8000B44423300221A7002E000BF00E000BF39
:10100800FA78796813469B001344DB000B44443399
:101018007A691A60FA78398B786813469B0013440A
:10102800DB00034448331960FA78796813469B005B
:101038001344DB000B445C3300221A70FA78796899
:1010480013469B001344DB000B444C3300221A6008
:10105800FA78796813469B001344DB000B44393354
:10106800FA781A70FA78796813469B001344DB0003
:101078000B445D3300221A707B681868FA781346AF
:101088009B001344DB0038337A68D1187B681B69EE
:10109800DBB21A4602F058FE034618460837BD462A
:1010A80080BD00BF80B586B000AF78607B681B68E4
:1010B8003B613B69FB607B681B68184602F065FB77
:1010C8000346012B40F0F2807B681B68184602F04B
:1010D80049FB0346002B00F0E8807B681B68184634
:1010E80002F040FB034603F40013B3F5001F04D1DC
:1010F8007B681B684FF400125A617B681B681846AE
:1011080002F030FB034603F48013B3F5801F04D1CB
:101118007B681B684FF480125A617B681B6818460D
:1011280002F020FB034603F08063B3F1806F04D123
:101138007B681B684FF080625A617B681B681846A1
:1011480002F010FB034603F00203022B03D17B6875
:101158001B6802225A617B681B68184602F002FB72
:10116800034603F00053B3F1005F18D1FB6803F5A1
:1011780088631A46FB6803F588631B6823F02E030F
:101188001360786805F062FC7B681B6801211846CB
:1011980002F0FCFB7B681B684FF000525A617B68C9
:1011A8001B68184602F0DEFA034603F08073B3F1B9
:1011B800807F02D1786801F0DDF87B681B681846EB
:1011C80002F0D0FA034603F00803082B06D178682A
:1011D80005F020FC7B681B6808225A617B681B6845
:1011E800184602F0BFFA034603F00073B3F1007F1C
:1011F80038D17B681B68184602F0EEFEB860002301
:101208007B6125E07B6903F00F03BA6822FA03F3D8
:1012180003F00103002B18D07B695A01FB681344C3
:1012280003F5A0631B6803F40043B3F5004F06D130
:101238007B69DBB21946786800F0CFF805E07B6976
:10124800DBB21946786800F069FC7B6901337B6181
:101258007B689A687B699A42D4D87B681B684FF090
:1012680000725A617B681B68184602F07BFA0346D5
:1012780003F01003102B01D1012300E00023002B01
:1012880014D07B681B687A681268926922F0100291
:101298009A61786800F0C2FF7B681B687A681268F8
:1012A800926942F010029A6100E000BF1837BD460B
:1012B80080BD80B582B000AF78607B6893F8B832A3
:1012C800012B01D1022313E07B68012283F8B822A5
:1012D8007B681B68184602F052F97B681B6801217D
:1012E800184602F0BBFB7B68002283F8B822002373
:1012F80018460837BD4680BD80B582B000AF78601B
:101308007B6893F8B832012B01D102230DE07B688A
:10131800012283F8B8227B681B68184602F0B2FFE6
:101328007B68002283F8B822002318460837BD4698
:1013380080BD80B582B000AF78607B681B681846B6
:1013480002F060FB034618460837BD4680BD80B4EE
:1013580083B000AF78600B46FB70FA787968134663
:101368009B001344DB000B445C331B7818460C3796
:10137800BD465DF8047B704780B483B000AF7860E9
:101388000B46FB70FA78796813469B001344DB0020
:101398000B444C331B6818460C37BD465DF8047B7C
:1013A800704780B582B000AF78607B681B681846CC
:1013B80002F0A6FB034618460837BD4680BD80B537
:1013C80082B000AF78607B681B68184602F081FB2A
:1013D800034618460837BD4680BD80B586B000AFC5
:1013E80078600B46FB707B681B687B617B693B619F
:1013F800FB78FB60FB685A013B69134403F5A06363
:101408009B6803F00403042B1AD1FB685A013B695B
:10141800134403F5A0631A4604239360FB685A013A
:101428003B69134403F5A0631946FB685A013B69FD
:10143800134403F5A063DB6843F00203CB6097E035
:10144800FB685A013B69134403F5A0639B6803F0EA
:101458002003202B09D1FB685A013B69134403F58B
:10146800A0631A462023936082E0FB685A013B6917
:10147800134403F5A0639B6803F00803082B35D1D8
:10148800FB685A013B69134403F5A0631946FB68DE
:101498005A013B69134403F5A063DB6843F0020378
:1014A800CB607968FA6813469B001344DB000B4451
:1014B8005D3305221A70FB685A013B69134403F532
:1014C800A0631A4610239360FB685A013B691344D2
:1014D80003F5A0631A46082393607B681B68FA68C3
:1014E800D2B21146184602F088FD41E0FB685A0165
:1014F8003B69134403F5A0639B6803F48063B3F569
:10150800806F35D1FB685A013B69134403F5A0632A
:101518001946FB685A013B69134403F5A063DB686D
:1015280043F00203CB607B681B68FA68D2B21146AD
:10153800184602F062FDFB685A013B69134403F543
:10154800A0631A46102393607968FA6813469B00D3
:101558001344DB000B445D3308221A70FB685A0100
:101568003B69134403F5A0631A464FF48063936004
:10157800FB685A013B69134403F5A0639B6803F4B5
:101588000073B3F5007F23D1FB685A013B6913440C
:1015980003F5A0631946FB685A013B69134403F538
:1015A800A063DB6843F00203CB607B681B68FA68C2
:1015B800D2B21146184602F020FDFB685A013B6979
:1015C800134403F5A0631A464FF400739360A1E235
:1015D800FB685A013B69134403F5A0639B6803F059
:1015E8000103012B40F0C3807B681B69002B1BD0D3
:1015F8007968FA6813469B001344DB000B444833B0
:101608001A68FB6859013B690B4403F5A0631B6921
:10161800C3F31203D11A7868FA6813469B0013447F
:10162800DB0003444C3319607968FA6813469B0061
:101638001344DB000B445D3301221A707968FA68A1
:1016480013469B001344DB000B44583300221A60F6
:10165800FB685A013B69134403F5A0631A4601234A
:1016680093607968FA6813469B001344DB000B44C7
:101678003F331B78002B0AD07968FA6813469B0021
:101688001344DB000B443F331B78022B22D1FB6849
:101698005A013B69134403F5A0631946FB685A01D4
:1016A8003B69134403F5A063DB6843F00203CB6096
:1016B8007B681B68FA68D2B21146184602F09DFC96
:1016C800FB685A013B69134403F5A0631A461023CB
:1016D800936035E07968FA6813469B001344DB0091
:1016E8000B443F331B78032B2AD1FB685A013B6913
:1016F800134403F5A0631946FB685A013B69134478
:1017080003F5A0631B6843F000530B607968FA681F
:1017180013469B001344DB000B445C3301221A7010
:10172800FB68D8B27968FA6813469B001344DB005B
:101738000B445C331B781A460146786805F094F927
:101748007968FA6813469B001344DB000B44503356
:101758001B7883F00103D8B27968FA6813469B00B6
:101768001344DB000B44503302461A70D2E1FB6885
:101778005A013B69134403F5A0639B6803F0020315
:10178800022B40F0F280FB685A013B69134403F5D1
:10179800A0631946FB685A013B69134403F5A0632B
:1017A800DB6823F00203CB607968FA6813469B0074
:1017B8001344DB000B445D331B78012B0AD1796895
:1017C800FA6813469B001344DB000B445C33012288
:1017D8001A70B0E07968FA6813469B001344DB007E
:1017E8000B445D331B78052B0AD17968FA681346D8
:1017F8009B001344DB000B445C3305221A709AE00B
:101808007968FA6813469B001344DB000B445D3388
:101818001B78062B0AD07968FA6813469B00134494
:10182800DB000B445D331B78082B56D17968FA68C6
:1018380013469B001344DB000B4458331B68591CA8
:101848007868FA6813469B001344DB000344583356
:1018580019607968FA6813469B001344DB000B444F
:1018680058331B68032B14D97968FA6813469B0010
:101878001344DB000B44583300221A607968FA6875
:1018880013469B001344DB000B445C3304221A709C
:1018980009E07968FA6813469B001344DB000B449F
:1018A8005C3302221A70FB685A013B69134403F542
:1018B800A0631B68BB60BB6823F08043BB60BB6848
:1018C80043F00043BB60FB685A013B69134403F5CE
:1018D800A0631A46BB6813602DE07968FA6813465E
:1018E8009B001344DB000B445D331B78032B22D190
:1018F8007968FA6813469B001344DB000B445C3399
:1019080002221A70FB685A013B69134403F5A0636D
:101918001B68BB60BB6823F08043BB60BB6843F0B7
:101928000043BB60FB685A013B69134403F5A0639D
:101938001A46BB681360FB685A013B69134403F5F8
:10194800A0631A4602239360FB68D8B27968FA68E4
:1019580013469B001344DB000B445C331B781A4688
:101968000146786805F080F8D4E0FB685A013B69C5
:10197800134403F5A0639B6803F08003802B3FD1D9
:10198800FB685A013B69134403F5A0631946FB68D9
:101998005A013B69134403F5A063DB6843F0020373
:1019A800CB607968FA6813469B001344DB000B444C
:1019B80058331B68591C7868FA6813469B0013440F
:1019C800DB000344583319607968FA6813469B00B2
:1019D8001344DB000B445D3306221A707B681B68D6
:1019E800FA68D2B21146184602F007FBFB685A01A2
:1019F8003B69134403F5A0631A468023936089E08A
:101A0800FB685A013B69134403F5A0639B6803F024
:101A18001003102B7ED17968FA6813469B00134493
:101A2800DB000B443F331B78032B23D17968FA681A
:101A380013469B001344DB000B44583300221A6002
:101A4800FB685A013B69134403F5A0631946FB6818
:101A58005A013B69134403F5A063DB6843F00203B2
:101A6800CB607B681B68FA68D2B21146184602F050
:101A7800C4FA46E07968FA6813469B001344DB0011
:101A88000B443F331B78002B0AD07968FA68134659
:101A98009B001344DB000B443F331B78022B30D1EF
:101AA8007968FA6813469B001344DB000B445833EB
:101AB80000221A607B681B69002B22D17968FA68BA
:101AC80013469B001344DB000B445D3303221A705A
:101AD800FB685A013B69134403F5A0631946FB6888
:101AE8005A013B69134403F5A063DB6843F0020322
:101AF800CB607B681B68FA68D2B21146184602F0C0
:101B08007CFAFB685A013B69134403F5A0631A4643
:101B18001023936000BF1837BD4680BD80B586B0DE
:101B280000AF78600B46FB707B681B687B617B6944
:101B38003B61FB78FB60FB685A013B69134403F582
:101B4800A0639B6803F00403042B1AD1FB685A01B5
:101B58003B69134403F5A0631A4604239360FB68AA
:101B68005A013B69134403F5A0631946FB685A01FF
:101B78003B69134403F5A063DB6843F00203CB60C1
:101B880047E3FB685A013B69134403F5A0639B686C
:101B980003F02003202B42D1FB685A013B69134410
:101BA80003F5A0631A46202393607968FA68134600
:101BB8009B001344DB000B443D331B78012B40F0A2
:101BC80028837968FA6813469B001344DB000B44AA
:101BD8003D3300221A707968FA6813469B00134453
:101BE800DB000B445C3302221A70FB685A013B6924
:101BF800134403F5A0631946FB685A013B69134473
:101C080003F5A063DB6843F00203CB607B681B68C5
:101C1800FA68D2B21146184602F0EFF9F9E2FB6809
:101C28005A013B69134403F5A0639B6803F0400322
:101C3800402B40D17968FA6813469B001344DB00B7
:101C48000B445D3304221A707968FA6813469B00C6
:101C58001344DB000B443D3301221A707968FA689B
:101C680013469B001344DB000B44583300221A60D0
:101C7800FB685A013B69134403F5A0631946FB68E6
:101C88005A013B69134403F5A063DB6843F0020380
:101C9800CB607B681B68FA68D2B21146184602F01E
:101CA800ACF9FB685A013B69134403F5A0631A4673
:101CB80040239360ADE2FB685A013B69134403F586
:101CC800A0639B6803F40073B3F5007F23D1FB681E
:101CD8005A013B69134403F5A0631946FB685A018E
:101CE8003B69134403F5A063DB6843F00203CB6050
:101CF8007B681B68FA68D2B21146184602F07DF973
:101D0800FB685A013B69134403F5A0631A464FF474
:101D1800007393607DE2FB685A013B69134403F545
:101D2800A0639B6803F00103012B36D17968FA6838
:101D380013469B001344DB000B44583300221A60FF
:101D4800FB685A013B69134403F5A0631946FB6815
:101D58005A013B69134403F5A063DB6843F00203AF
:101D6800CB607B681B68FA68D2B21146184602F04D
:101D780044F9FB685A013B69134403F5A0631A460A
:101D8800012393607968FA6813469B001344DB00CB
:101D98000B445D3301221A703BE2FB685A013B6930
:101DA800134403F5A0639B6803F00803082B2CD1A8
:101DB800FB685A013B69134403F5A0631A460823DC
:101DC8009360FB685A013B69134403F5A063194605
:101DD800FB685A013B69134403F5A063DB6843F0D1
:101DE8000203CB607B681B68FA68D2B211461846BA
:101DF80002F003F97968FA6813469B001344DB0084
:101E08000B445D3305221A7003E2FB685A013B69F3
:101E1800134403F5A0639B6803F01003102B56D1FD
:101E28007968FA6813469B001344DB000B44583367
:101E380000221A607968FA6813469B001344DB0095
:101E48000B445D3303221A707968FA6813469B00C5
:101E58001344DB000B443D331B78002B14D1796805
:101E6800FA6813469B001344DB000B443C331B7891
:101E7800002B09D17968FA6813469B001344DB00EC
:101E88000B443D3301221A70FB685A013B69134425
:101E980003F5A0631946FB685A013B69134403F52F
:101EA800A063DB6843F00203CB607B681B68FA68B9
:101EB800D2B21146184602F0A0F8FB685A013B69F5
:101EC800134403F5A0631A4610239360A1E1FB684D
:101ED8005A013B69134403F5A0639B6803F0800330
:101EE800802B2CD1FB685A013B69134403F5A0638E
:101EF8001946FB685A013B69134403F5A063DB6884
:101F080043F00203CB607B681B68FA68D2B21146C3
:101F1800184602F072F87968FA6813469B00134471
:101F2800DB000B445D3306221A70FB685A013B69DB
:101F3800134403F5A0631A468023936069E1FB68A4
:101F48005A013B69134403F5A0639B6803F480635B
:101F5800B3F5806F36D1FB685A013B69134403F52A
:101F6800A0631946FB685A013B69134403F5A06353
:101F7800DB6843F00203CB607B681B68FA68D2B267
:101F88001146184602F039F8FB685A013B691344B8
:101F980003F5A0631A4610239360FB685A013B6956
:101FA800134403F5A0631A464FF48063936079687D
:101FB800FA6813469B001344DB000B445D33082288
:101FC8001A7026E1FB685A013B69134403F5A063C4
:101FD8009B6803F00203022B40F01B81FB685A0147
:101FE8003B69134403F5A0631946FB685A013B6932
:101FF800134403F5A063DB6823F00203CB60796820
:10200800FA6813469B001344DB000B445D331B78CE
:10201800012B37D17968FA6813469B001344DB001B
:102028000B445C3301221A707968FA6813469B00E6
:102038001344DB000B443F331B78022B0BD0796829
:10204800FA6813469B001344DB000B443F331B78AC
:10205800032B40F0C5807968FA6813469B00134447
:10206800DB000B4451331B7883F00103D8B2796845
:10207800FA6813469B001344DB000B4451330246B5
:102088001A70ADE07968FA6813469B001344DB00C8
:102098000B445D331B78032B0AD17968FA68134621
:1020A8009B001344DB000B445C3302221A7097E058
:1020B8007968FA6813469B001344DB000B445D33D0
:1020C8001B78042B0AD17968FA6813469B001344DD
:1020D800DB000B445C3302221A7081E07968FA68ED
:1020E80013469B001344DB000B445D331B78052B20
:1020F8000AD17968FA6813469B001344DB000B4445
:102108005C3305221A706BE07968FA6813469B0005
:102118001344DB000B445D331B78062B0AD0796827
:10212800FA6813469B001344DB000B445D331B78AD
:10213800082B55D17968FA6813469B001344DB00D5
:102148000B4458331B68591C7868FA6813469B007F
:102158001344DB000344583319607968FA6813465E
:102168009B001344DB000B4458331B68032B14D922
:102178007968FA6813469B001344DB000B44583314
:1021880000221A607968FA6813469B001344DB0042
:102198000B445C3304221A7009E07968FA68134624
:1021A8009B001344DB000B445C3302221A70FB686B
:1021B8005A013B69134403F5A0631B68BB60BB6805
:1021C80023F08043BB60BB6843F00043BB60FB68FF
:1021D8005A013B69134403F5A0631A46BB681360B0
:1021E800FB685A013B69134403F5A0631A460223AE
:1021F8009360FB68D8B27968FA6813469B00134469
:10220800DB000B445C331B781A460146786804F0FF
:102218002BFC00BF1837BD4680BD000080B58AB0D2
:1022280000AF78607B681B687B627B6A3B627B6877
:102238001B681B6AFB61FB6903F00F03BB61FB6949
:102248005B0C03F00F037B61FB691B09C3F30A03F3
:102258003B617B69022B03D0052B00F0828083E071
:102268003B69002B7FD07968BA6913469B001344F9
:10227800DB000B4444331B68002B74D07B68186860
:102288007968BA6913469B001344DB000B44443356
:102298001B683A6992B2194601F03BFA7968BA6943
:1022A80013469B001344DB000B4444331A683B6914
:1022B800D1187868BA6913469B001344DB000344BD
:1022C800443319607968BA6913469B001344DB00EC
:1022D8000B444C331A683B69D1187868BA691346BD
:1022E8009B001344DB0003444C331960BB695A015B
:1022F8003B6A134403F5A0631A691D4B1340002B76
:1023080031D0BB695A013B6A134403F5A0631B68CB
:10231800FB60FB6823F08043FB60FB6843F00043ED
:10232800FB60BB695A013B6A134403F5A0631A4674
:10233800FB6813607968BA6913469B001344DB0095
:102348000B4450331B7883F00103D8B27968BA691B
:1023580013469B001344DB000B44503302461A70AB
:1023680001E000BF00E000BF00BF2837BD4680BDC8
:102378000000F81F80B586B000AF78607B681B68E6
:102388007B617B693B613B6903F588631B68FB6084
:102398003B6903F588631B68BB60BB6823F02E03A9
:1023A800BB60FB6803F00203022B13D1FB6803F048
:1023B8000103012B0AD17B681B687A68126892694D
:1023C80022F000529A61786804F032FBBB6843F04F
:1023D8000203BB60FB6803F00803082B48D1BB6805
:1023E80043F00803BB60FB6803F00403042B29D106
:1023F8007B689B69022B13D1FB6803F4C023B3F5F8
:10240800802F06D17B681B680221184601F0BEFAAE
:1024180011E07B681B680121184601F0B7FA0AE051
:102428007B68DB68032B06D13B6903F580631A469A
:102438004EF660235360786804F024FB786804F053
:10244800F7FA15E0786804F02BFB3B6903F588631D
:102458001A463B6903F588631B6823F02E03136053
:102468007B681B687A681268926942F000529A6128
:10247800FB6803F02003202B03D1BB6843F0200343
:10248800BB603B6903F588631A46BB68136000BFED
:102498001837BD4680BD000090B585B000AF7860A4
:1024A8007B68002B01D101230FE17B6893F83D3055
:1024B800DBB2002B06D17B68002283F83C207868C9
:1024C80004F06AF87B68242283F83D207B681B6847
:1024D8007A681268126822F001021A6000F00CFD96
:1024E800F8607B685B687B4A934207D8FB687A4A46
:1024F800934294BF01230023DBB206E0FB68774ACE
:10250800934294BF01230023DBB2002B01D00123A7
:10251800DBE0FB68724AA2FB03239B0CBB607B6871
:102528001B687A681268526822F03F01BA680A4349
:102538005A607B681A687B681B681B6A23F03F0136
:102548007B685B686348834202D8BB68013309E053
:10255800BB684FF4967000FB03F36248A0FB0303CB
:102568009B0901330B4313627B6818687B681B68FF
:10257800DB6923F44F4222F0FF027B685B68554910
:102588008B420DD8FB68591E7B685B685B00B1FB0A
:10259800F3F30133C3F30B03042B38BF04234FE0D9
:1025A8007B689B68002B11D1FB685C1E7B685968AF
:1025B8000B465B000B44B4FBF3F30133C3F30B038B
:1025C800002B0CBF01230023DBB212E0FB685C1E6A
:1025D8007B6859680B469B000B4499000B44B4FB7D
:1025E800F3F30133C3F30B03002B0CBF01230023C8
:1025F800DBB2002B01D0012322E07B689B68002B13
:102608000ED1FB685C1E7B6859680B465B000B4467
:10261800B4FBF3F30133C3F30B0343F400430FE0BC
:10262800FB685C1E7B6859680B469B000B4499004D
:102638000B44B4FBF3F30133C3F30B0343F44043FC
:102648001343C3617B681B687A681268126822F0BA
:10265800C0017A68D0697A68126A02430A431A602C
:102668007B681A687B681B689B6823F4034323F024
:10267800FF03796808697968C96801430B43936067
:102688007B681B687A681268D26822F0FF017A6852
:1026980050697A68926902430A43DA607B681B686A
:1026A8007A681268126842F001021A607B68002298
:1026B8001A647B68202283F83D207B6800221A6315
:1026C8007B68002283F83E20002318461437BD4655
:1026D80090BD00BFA08601007F841E00FF083D005A
:1026E80083DE1B43D34D621080B586B000AF78609F
:1026F8007B68002B01D101232DE27B681B6803F066
:102708000103002B75D0A34B9B6803F00C03042B2B
:102718000CD0A04B9B6803F00C03082B12D19D4BE7
:102728005B6803F48003B3F5800F0BD1994B1B68EA
:1027380003F40033002B5BD07B685B68002B57D118
:10274800012308E27B685B68B3F5803F06D1914AB4
:10275800904B1B6843F4803313601DE07B685B6813
:10276800B3F5A02F0CD18B4A8A4B1B6843F4802306
:102778001360884A874B1B6843F4803313600BE06F
:10278800844A844B1B6823F480331360814A814B4D
:102798001B6823F4802313607B685B68002B13D0CD
:1027A800FDF7FCFE386108E0FDF7F8FE02463B69DC
:1027B800D31A642B01D90323CDE1764B1B6803F4AC
:1027C8000033002BF0D014E0FDF7E8FE386108E094
:1027D800FDF7E4FE02463B69D31A642B01D90323B3
:1027E800B9E16C4B1B6803F40033002BF0D100E017
:1027F80000BF7B681B6803F00203002B63D0654BA6
:102808009B6803F00C03002B0BD0624B9B6803F012
:102818000C03082B1CD15F4B5B6803F48003002B6F
:1028280016D15C4B1B6803F00203002B05D07B68B4
:10283800DB68012B01D001238DE15649554B1B68FC
:1028480023F0F8027B681B69DB0013430B603AE056
:102858007B68DB68002B20D04F4B01221A60FDF704
:102868009DFE386108E0FDF799FE02463B69D31AE0
:10287800022B01D903236EE1464B1B6803F00203C8
:10288800002BF0D04349434B1B6823F0F8027B68C8
:102898001B69DB0013430B6015E03F4B00221A60F5
:1028A800FDF77CFE386108E0FDF778FE02463B69DB
:1028B800D31A022B01D903234DE1364B1B6803F0D1
:1028C8000203002BF0D17B681B6803F00803002B80
:1028D80030D07B685B69002B16D0304B01221A6020
:1028E800FDF75CFE386108E0FDF758FE02463B69DB
:1028F800D31A022B01D903232DE1264B5B6F03F07A
:102908000203002BF0D015E0244B00221A60FDF7DB
:1029180045FE386108E0FDF741FE02463B69D31ADF
:10292800022B01D9032316E11A4B5B6F03F0020354
:10293800002BF0D17B681B6803F00403002B00F028
:10294800A0800023FB75134B1B6C03F08053002BF6
:102958000FD10023FB600F4A0E4B1B6C43F08053D2
:1029680013640C4B1B6C03F08053FB60FB68012362
:10297800FB750B4B1B6803F48073002B21D1084AAD
:10298800074B1B6843F480731360FDF707FE38613B
:1029980011E000BF0038024000004742800E474265
:1029A80000700040FDF7FAFD02463B69D31A022B7E
:1029B80001D90323CFE06A4B1B6803F48073002B13
:1029C800F0D07B689B68012B06D1664A654B1B6F6C
:1029D80043F0010313671CE07B689B68052B0CD14F
:1029E800604A604B1B6F43F0040313675D4A5D4BFD
:1029F8001B6F43F0010313670BE05A4A594B1B6FD7
:102A080023F001031367574A564B1B6F23F0040347
:102A180013677B689B68002B15D0FDF7BFFD3861F5
:102A28000AE0FDF7BBFD02463B69D31A41F2883242
:102A3800934201D903238EE04A4B1B6F03F0020334
:102A4800002BEED014E0FDF7A9FD38610AE0FDF790
:102A5800A5FD02463B69D31A41F28832934201D957
:102A6800032378E03F4B1B6F03F00203002BEED1EA
:102A7800FB7D012B05D13B4A3A4B1B6C23F080535D
:102A880013647B689B69002B64D0364B9B6803F00A
:102A98000C03082B5CD07B689B69022B41D1324B1D
:102AA80000221A60FDF77AFD386108E0FDF776FD2F
:102AB80002463B69D31A022B01D903234BE0294B69
:102AC8001B6803F00073002BF0D126497B68DA6994
:102AD8007B681B6A1A437B685B6A9B011A437B68A5
:102AE8009B6A5B08013B1B041A437B68DB6A1B0675
:102AF80013434B601C4B01221A60FDF74FFD3861F0
:102B080008E0FDF74BFD02463B69D31A022B01D9B9
:102B1800032320E0134B1B6803F00073002BF0D055
:102B280018E0114B00221A60FDF738FD386108E003
:102B3800FDF734FD02463B69D31A022B01D9032362
:102B480009E0084B1B6803F00073002BF0D101E08B
:102B5800012300E0002318461837BD4680BD00BF9A
:102B680000700040003802406000474280B584B0E1
:102B780000AF786039607B68002B01D10123CAE07F
:102B8800674B1B6803F00F023B689A420CD2644BF8
:102B98003A68D2B21A70624B1B6803F00F023B68A6
:102BA8009A4201D00123B6E07B681B6803F0020358
:102BB800002B20D07B681B6803F00403002B05D092
:102BC800584A584B9B6843F4E05393607B681B68F2
:102BD80003F00803002B05D0524A524B9B6843F47C
:102BE800604393604F494F4B9B6823F0F0027B682A
:102BF8009B6813438B607B681B6803F00103002B01
:102C080044D07B685B68012B07D1464B1B6803F4F3
:102C18000033002B19D101237DE07B685B68022B10
:102C280003D07B685B68032B07D13E4B1B6803F01E
:102C38000073002B09D101236DE03A4B1B6803F0A8
:102C48000203002B01D1012365E03649354B9B680F
:102C580023F003027B685B6813438B60FDF79EFCDF
:102C6800F8600AE0FDF79AFC0246FB68D31A41F2C5
:102C78008832934201D903234DE02A4B9B6803F025
:102C88000C027B685B689B009A42EBD1244B1B6863
:102C980003F00F023B689A420CD9214B3A68D2B232
:102CA8001A701F4B1B6803F00F023B689A4201D051
:102CB800012330E07B681B6803F00403002B08D075
:102CC8001849184B9B6823F4E0527B68DB68134370
:102CD8008B607B681B6803F00803002B09D011493F
:102CE800104B9B6823F460427B681B69DB0013432D
:102CF8008B6000F01DF801460A4B9B681B0903F026
:102D08000F03094AD35C21FA03F3084A1360002031
:102D1800FDF700FC002318461037BD4680BD00BFF4
:102D2800003C0240003802401875000838000020B6
:102D38002DE9F04F8FB000AF0023FB6200237B63C7
:102D48000023BB6200233B63624B9B6803F00C03C8
:102D5800042B07D0082B08D0002B40F0B2805E4B24
:102D68003B63B1E05D4B3B63AEE05A4B5B6803F0FD
:102D78003F03FB62574B5B6803F48003002B4ED084
:102D8800544B5B689B094FF0000440F2FF114FF071
:102D9800000201EA030102EA04020B46144660013C
:102DA8007862786A40EAD36078625B013B62D7E96F
:102DB80008345B1A64EB02044FEA841949EA936900
:102DC8004FEA8318B8EB030869EB04094FEAC90313
:102DD800FB61FB6943EA5873FB614FEAC803BB61B7
:102DE800D7E9068918EB010849EB02094FEA49239C
:102DF8007B617B6943EAD8537B614FEA48233B6197
:102E0800D7E9048940464946FB6A4FF000041A4650
:102E18002346FDF7D5F903460C467B6343E02D4B6B
:102E28005B689B094FF0000440F2FF114FF000026D
:102E380001EA030102EA04020B4614466001F86045
:102E4800F86840EAD360F8605B01BB60D7E90234F8
:102E58005B1A64EB0204A60146EA93669D01ED1A2B
:102E680066EB0406F3007B607B6843EA55737B607E
:102E7800EB003B6097E860006D1846EB02064FEAEE
:102E8800862B4BEA955B4FEA852A55465E462846CF
:102E98003146FB6A4FF000041A462346FDF790F9C5
:102EA80003460C467B630B4B5B681B0C03F0030368
:102EB80001335B00BB627A6BBB6AB2FBF3F33B6323
:102EC80002E0054B3B6300BF3B6B18463C37BD46F1
:102ED800BDE8F08F003802400024F40000127A00A8
:102EE80080B400AF034B1B681846BD465DF8047BF1
:102EF800704700BF3800002080B500AFFFF7F0FF33
:102F08000146054B9B689B0A03F00703034AD35C01
:102F180021FA03F3184680BD0038024028750008DE
:102F280080B500AFFFF7DCFF0146054B9B685B0BE4
:102F380003F00703034AD35C21FA03F3184680BD64
:102F4800003802402875000880B582B000AF78606C
:102F58007B68002B01D1012355E07B6800229A622F
:102F68007B6893F85130DBB2002B06D17B680022D6
:102F780083F85020786803F057FB7B68022283F8B7
:102F880051207B681B687A681268126822F0400238
:102F98001A607B681B687A6851687A68926811437E
:102FA8007A68D26811437A68126911437A6852695B
:102FB80011437A68926902F4007211437A68D269FF
:102FC80011437A68126A11437A68926A0A431A604E
:102FD8007B681B687A689269120C02F004017A68AF
:102FE800526A0A435A607B681B687A681268D26919
:102FF80022F40062DA617B6800225A657B6801224C
:1030080083F85120002318460837BD4680BD80B597
:1030180082B000AF78607B68002B01D101233FE0CC
:103028007B6893F83930DBB2002B06D17B6800222D
:1030380083F83820786803F03FFB7B68242283F804
:1030480039207B681B687A681268D26822F40052BB
:10305800DA60786800F028F87B681B687A6812687C
:10306800126922F490421A617B681B687A681268B8
:10307800526922F02A025A617B681B687A681268D2
:10308800D26842F40052DA607B680022DA637B6817
:10309800202283F839207B68202283F83A200023F5
:1030A80018460837BD4680BDF0B585B000AF7860DA
:1030B8007B681B687A681268126922F440517A6842
:1030C800D2680A431A617B689A687B681B691A434D
:1030D8007B685B691A437B68DB691343FB607B6829
:1030E8001A687B681B68DB6823F4164323F00C031B
:1030F800F9680B43D3607B681B687A681268526969
:1031080022F440717A6892690A435A617B68DB69E4
:10311800B3F5004F40F0E4807B681B68AB4A9342EC
:1031280004D07B681B68AA4A93426CD17B681C68F0
:10313800FFF7F6FE024613469B0013449A001A4412
:103148007B685B685B00B2FBF3F3A24AA2FB032334
:103158005B091D01FFF7E4FE024613469B0013447A
:103168009A001A447B685B685B00B2FBF3F6FFF7D2
:10317800D7FE024613469B0013449A001A447B6804
:103188005B685B00B2FBF3F3924AA2FB03235B0983
:10319800642202FB03F3F31ADB0032338D4AA2FBED
:1031A80003235B095B0003F4F8731D44FFF7B8FEC3
:1031B800024613469B0013449A001A447B685B68D6
:1031C8005B00B2FBF3F6FFF7ABFE024613469B002B
:1031D80013449A001A447B685B685B00B2FBF3F304
:1031E8007C4AA2FB03235B09642202FB03F3F31A64
:1031F800DB003233774AA2FB03235B0903F00703A2
:103208002B44A36054E17B681C68FFF775FE0246F7
:1032180013469B0013449A001A447B685B685B0062
:10322800B2FBF3F36B4AA2FB03235B091D01FFF713
:1032380063FE024613469B0013449A001A447B68B7
:103248005B685B00B2FBF3F6FFF756FE02461346D7
:103258009B0013449A001A447B685B685B00B2FBCE
:10326800F3F35C4AA2FB03235B09642202FB03F32A
:10327800F31ADB003233574AA2FB03235B095B00D6
:1032880003F4F8731D44FFF737FE024613469B000C
:1032980013449A001A447B685B685B00B2FBF3F640
:1032A800FFF72AFE024613469B0013449A001A446D
:1032B8007B685B685B00B2FBF3F3464AA2FB03231F
:1032C8005B09642202FB03F3F31ADB003233414A41
:1032D800A2FB03235B0903F007032B44A360E7E089
:1032E8007B681B68394A934204D07B681B68384A5C
:1032F800934271D17B681C68FFF712FE02461346A1
:103308009B0013449A001A447B685B689B00B2FBDD
:10331800F3F3304AA2FB03235B091D01FFF700FE0C
:10332800024613469B0013449A001A447B685B6864
:103338009B00B2FBF3F6FFF7F3FD024613469B0032
:1033480013449A001A447B685B689B00B2FBF3F352
:10335800204AA2FB03235B09642202FB03F3F31A4E
:103368001B0132331B4AA2FB03235B0903F0F00362
:103378001D44FFF7D5FD024613469B0013449A00EF
:103388001A447B685B689B00B2FBF3F6FFF7C8FD45
:10339800024613469B0013449A001A447B685B68F4
:1033A8009B00B2FBF3F30B4AA2FB03235B096422E5
:1033B80002FB03F3F31A1B013233064AA2FB032371
:1033C8005B0903F00F032B44A36071E00010014078
:1033D800001401401F85EB517B681C68FFF78CFDCA
:1033E800024613469B0013449A001A447B685B68A4
:1033F8009B00B2FBF3F3304AA2FB03235B091D01D8
:10340800FFF77AFD024613469B0013449A001A44BC
:103418007B685B689B00B2FBF3F6FFF76DFD024625
:1034280013469B0013449A001A447B685B689B0010
:10343800B2FBF3F3204AA2FB03235B09642202FBDD
:1034480003F3F31A1B0132331B4AA2FB03235B0964
:1034580003F0F0031D44FFF74FFD024613469B009F
:1034680013449A001A447B685B689B00B2FBF3F62E
:10347800FFF742FD024613469B0013449A001A4484
:103488007B685B689B00B2FBF3F30B4AA2FB032348
:103498005B09642202FB03F3F31A1B013233064A69
:1034A800A2FB03235B0903F00F032B44A360FFE790
:1034B80000BF1437BD46F0BD1F85EB5184B080B501
:1034C80084B000AF786007F11C0080E80E003B6B09
:1034D800012B22D17B689B6B23F480327B689A6333
:1034E8007B68DB6823F4840323F040037A68D360A5
:1034F8007B68DB6823F440127B68DA60FB6C012B85
:1035080005D17B68DB6843F480127B68DA607868F1
:1035180000F04AF90346FB731AE07B68DB6843F066
:1035280040027B68DA60786800F03EF90346FB7376
:103538003B6C002B06D17B689B6B43F480327B6825
:103548009A6305E07B689B6B23F480327B689A63FF
:10355800BB6A012B0BD17B689B6843F006027B6832
:103568009A607B689B6843F020027B689A60FB7BCB
:1035780018461037BD46BDE8804004B0704780B497
:1035880083B000AF78607B689B6843F001027B687A
:103598009A60002318460C37BD465DF8047B7047D7
:1035A80080B483B000AF78607B689B6823F0010229
:1035B8007B689A60002318460C37BD465DF8047B8B
:1035C800704780B582B000AF78600B46FB707B68AF
:1035D800DB6823F0C0427B68DA60FB78012B06D1F8
:1035E8007B68DB6843F000527B68DA600BE0FB78AD
:1035F800002B06D17B68DB6843F080427B68DA6089
:1036080001E0012303E03220FCF7D4FF0023184631
:103618000837BD4680BD000080B485B000AF786033
:1036280039600023FB603B689B0143F020027B6804
:103638001A61FB680133FB60FB68094A934201D9B0
:10364800032306E07B681B6903F02003202BF0D0DE
:10365800002318461437BD465DF8047B704700BF49
:10366800400D030080B485B000AF78600023FB6094
:103678007B6810221A61FB680133FB60FB68094A0A
:10368800934201D9032306E07B681B6903F010030A
:10369800102BF0D0002318461437BD465DF8047B84
:1036A800704700BF400D030080B489B000AFF860D8
:1036B800B96011461A460B46FB711346BB80FB687E
:1036C8007B61BB68FB6197F82830002B1AD1BB8857
:1036D80003339B083B610023BB610FE0FB791A03AE
:1036E8007B69134403F580531A46FB691B68136012
:1036F800FB690433FB61BB690133BB61BA693B6990
:103708009A42EBD3002318462437BD465DF8047B64
:10371800704780B489B000AFF860B9601346FB8089
:10372800FB687B61BB68FB61FB8803339B083B61DB
:103738000023BB610BE07B6903F580531A68FB69C2
:103748001A60FB690433FB61BB690133BB61BA6969
:103758003B699A42EFD3FB6918462437BD465DF8AA
:10376800047B704780B485B000AF78607B685B6984
:10377800FB607B689B69FA681340FB60FB6818462E
:103788001437BD465DF8047B704780B483B000AF42
:1037980078607B685B6903F0010318460C37BD4607
:1037A8005DF8047B7047000080B485B000AF786096
:1037B8000023FB60FB680133FB60FB68134A9342FC
:1037C80001D903231BE07B681B69002BF2DA002375
:1037D800FB607B681B6943F001027B681A61FB6828
:1037E8000133FB60FB68094A934201D9032306E0D1
:1037F8007B681B6903F00103012BF0D000231846F6
:103808001437BD465DF8047B704700BF400D0300C8
:1038180084B080B584B000AF786007F11C0080E800
:103828000E007B68BB60BB6803F560631A46002323
:1038380013607B689B6B43F400127B689A637B6818
:103848009B6B23F400227B689A637B689B6B23F451
:1038580080227B689A637B68DB6B03F48073002BA0
:103868001AD07B6A032B0BD1BB6803F580631A4619
:10387800BB6803F580631B6843F00403136016E01C
:10388800BB6803F580631A46BB6803F580631B6851
:1038980023F0040313600AE0BB6803F580631A464B
:1038A800BB6803F580631B6823F0040313601021D1
:1038B8007868FFF7B1FE7868FFF7D4FE0023FB6055
:1038C80015E0FB685A01BB68134403F5A0631A4668
:1038D8004FF0FF339360FB685A01BB68134403F54C
:1038E800A0631A460023D360FB680133FB603A6A81
:1038F800FB689A42E5D80121786800F0AFF8C82043
:10390800FCF758FE7B6800229A617B684FF0FF3213
:103918005A617B68DB6B03F48073002B0BD07B68E8
:103928004FF400725A627B68134A9A627B68134AA2
:10393800C3F8002109E07B6880225A627B68104A3C
:103948009A627B680F4AC3F80021BB6A002B05D135
:103958007B689B6943F010027B689A617B689A696F
:10396800094B13437A689361002318461037BD4604
:10397800BDE8804004B07047000200010003E00089
:1039880080006000E0004000080020A380B485B0FB
:1039980000AF78600B46FB707B68FB60FB6803F543
:1039A80080631A46FB6803F580631B6823F00303F2
:1039B8001360FB6803F580631946FB6803F58063B1
:1039C8001A68FB7803F0030313430B60FB78012BA1
:1039D80007D1FB6803F580631A464BF680335360C2
:1039E80009E0FB78022B06D1FB6803F580631A46D1
:1039F80041F270735360002318461437BD465DF8D2
:103A0800047B704780B584B000AF78607B68FB604A
:103A18000023BB60FB6803F588631B68BB60BB6859
:103A280023F02E03BB60FB6803F588631A46BB6866
:103A380043F4807313606420FCF7BCFDFB6803F556
:103A480088631A46BB6823F4807313600A20FCF766
:103A5800B1FD002318461037BD4680BD80B485B03F
:103A680000AF78600B46FB707B68FB600023BB608F
:103A7800FB6803F588631B68BB60BB6823F02E03F3
:103A8800BB60BB6803F48053002B0AD1FB78012B81
:103A980007D1FB6803F588631A46BB6843F4805373
:103AA8001360BB6803F48053B3F5805F0AD1FB78D9
:103AB800002B07D1FB6803F588631A46BB6823F41B
:103AC80080531360002318461437BD465DF8047B05
:103AD800704780B485B000AF78607B68FB600023D6
:103AE800BB60FB6803F588631B68BB60BB685B0C45
:103AF80003F0030318461437BD465DF8047B70478E
:103B080080B485B000AF78607B68FB60FB6803F524
:103B180080639B689BB218461437BD465DF8047BEA
:103B28007047000080B487B000AF7860084611463F
:103B38001A460346FB700B46BB7013467B70002386
:103B4800FB757B68BB60FB785A01BB68134403F5BF
:103B5800A0631A464FF0FF33936097F82430032B85
:103B680000F2848001A252F823F000BF853B0008D0
:103B7800353C0008853B0008F53B0008FB785A01F6
:103B8800BB68134403F5A0631A4640F29D43D36013
:103B980097F90230002B11DAFB785A01BB681344FD
:103BA80003F5A0631946FB785A01BB68134403F573
:103BB800A063DB6843F48073CB605AE07B68DB6BFF
:103BC80003F48073002B54D0FB785A01BB6813446C
:103BD80003F5A0631946FB785A01BB68134403F543
:103BE800A063DB6843F06003CB6042E0FB785A01D6
:103BF800BB68134403F5A0631A4640F29D63D36083
:103C080097F90230002B36DAFB785A01BB68134467
:103C180003F5A0631946FB785A01BB68134403F502
:103C2800A063DB6843F48073CB6024E0FB785A011F
:103C3800BB68134403F5A0631A4640F22523D360FA
:103C480097F90230002B18DAFB785A01BB68134445
:103C580003F5A0631946FB785A01BB68134403F5C2
:103C6800A063DB6843F4C073CB6006E00123FB75F7
:103C780004E000BF02E000BF00E000BFBB6803F53E
:103C880080631846BB6803F580639A69FB7803F084
:103C98000F03012101FA03F3134383617B689B69D6
:103CA80043F000727B689A6197F90230002B03DABF
:103CB8004FF400433B6101E000233B6197F820305B
:103CC800022B03D14FF40033FB6001E00023FB60BB
:103CD800FB785A01BB68134403F5A06319467B7847
:103CE8009B0503F0FE52BB78DB0203F4F0431A4352
:103CF80097F824309B0403F440231A433B8DC3F305
:103D08000A031A433B691A43FB6813430B6097F88D
:103D18002430032B10D1FB785A01BB68134403F5F8
:103D2800A0631946FB785A01BB68134403F5A063E6
:103D38001B6843F000530B60FB7D18461C37BD46DB
:103D48005DF8047B704700BF80B58CB002AFF860A7
:103D5800B9601346FB71FB683B62BB685B78FB612B
:103D68004FF480737B83FB68DB6B03F48073002B59
:103D780029D0BB681B79002B25D1FB79002B0BD1EF
:103D8800BB685B79012B07D1BB685B781946F8687B
:103D980000F03CFA002316E1FB79012B13D1FB69F3
:103DA8005A013B6A134403F5A0631946FB695A019B
:103DB8003B6A134403F5A063DB6823F06003CB6020
:103DC800BB6800225A71BB681B69002B18D0BB68FE
:103DD8001B69BA6812891344013BBA681289B3FB9C
:103DE800F2F3FB84FA8C7B8B9A420BD97B8BFB8496
:103DF800FB8CBA68128902FB03F2BB681A6101E006
:103E08000123FB84BB68DB78002B06D0FB8CBA68E7
:103E1800128902FB03F2BB681A61FB695A013B6A0B
:103E2800134403F5A0631846BB681B69C3F3120269
:103E3800FB8CD904664B0B401A43BB689B7A5B0723
:103E480003F0C04313430361FB79002B09D0FB69DE
:103E58005A013B6A134403F5A0631A46BB68DB6842
:103E680053613B6A03F580639B6803F00103002BF1
:103E78000CBF01230023DBB27B76FB695A013B6A46
:103E8800134403F5A0631946FB695A013B6A1344BE
:103E980003F5A0631B6823F000530B60FB695A010C
:103EA8003B6A134403F5A0631946FB695A013B6A50
:103EB800134403F5A0631A687B7E5B0713430B600A
:103EC800FB695A013B6A134403F5A0631B68414A26
:103ED8001360404B1B6823F080433E4A1360BB6865
:103EE800DB78002B06D03B4B1B6843F40043394A70
:103EF800136005E0374B1B6823F40043354A136011
:103F0800344B1B6843F00043324A1360FB695A0183
:103F18003B6A134403F5A0631A462E4B1B681360D3
:103F2800FB79002B4ED1BB68DB78002B4AD1BB68EC
:103F38001B69002B46D0BB68DB79032B30D801A264
:103F480052F823F05D3F0008813F00085D3F0008FC
:103F5800813F0008BB681B6903339B08FB82FA8A10
:103F6800FB68DB6A9BB29A421CD9FB689B6943F0E9
:103F78002002FB689A6115E0BB681B6903339B0844
:103F8800FB82FA8A3B6A03F580631B699BB29A42FB
:103F98000AD9FB689B6943F08062FB689A6103E079
:103FA80000BF02E000BF00E000BFBB68D968BB6883
:103FB8005A78BB681B6998B2002300930346F868D7
:103FC800FFF772FB002318462837BD4680BD00BFA7
:103FD8000000F81FC000002080B485B000AF7860F2
:103FE8007B68FB60FB6803F580635B699BB21846DE
:103FF8001437BD465DF8047B704780B487B000AFC6
:1040080078600B46FB707B683B61FB78FB600023A4
:104018007B61FB685A013B69134403F5A0631B6885
:104028009B0C03F00303BB60BB68002B02D0BB688A
:10403800022B71D1FB685A013B69134403F5A06355
:104048001946FB685A013B69134403F5A0631B68D2
:1040580043F080430B607B68DB6A03F47F03002B2B
:1040680046D1FB685A013B69134403F5A06319461E
:10407800FB685A013B69134403F5A0631B6823F0EE
:1040880000430B60FB685A013B69134403F5A063C6
:104098001946FB685A013B69134403F5A0631B6882
:1040A80043F000430B60FB685A013B69134403F576
:1040B800A0631946FB685A013B69134403F5A063E2
:1040C8001B6823F400430B607B6901337B617B69C8
:1040D800B3F57A7F1ED8FB685A013B69134403F590
:1040E800A0631B6803F00043B3F1004FECD086E0F7
:1040F800FB685A013B69134403F5A0631946FB6842
:104108005A013B69134403F5A0631B6843F000435D
:104118000B6074E000BF72E0FB685A013B6913440E
:1041280003F5A0631946FB685A013B69134403F57C
:10413800A0631B6843F080430B603B6903F5806311
:104148001B6903F47F03002B46D1FB685A013B69C6
:10415800134403F5A0631946FB685A013B691344ED
:1041680003F5A0631B6823F000430B60FB685A014A
:104178003B69134403F5A0631946FB685A013B6980
:10418800134403F5A0631B6843F000430B60FB680E
:104198005A013B69134403F5A0631946FB685A01A9
:1041A8003B69134403F5A0631B6823F400430B60C9
:1041B8007B6901337B617B69B3F57A7F1ED8FB6825
:1041C8005A013B69134403F5A0631B6803F00043DD
:1041D800B3F1004FECD012E0FB685A013B6913447D
:1041E80003F5A0631946FB685A013B69134403F5BC
:1041F800A0631B6843F000430B6000E000BF00238E
:1042080018461C37BD465DF8047B704780B487B0FC
:1042180000AF78600B46FB707B687B61FB783B6185
:104228000123FB603B695A017B69134403F5A063D2
:104238001946FB68DA04124B134043F000430B6144
:104248003B695A017B69134403F5A0631B68BB6093
:10425800BB6823F08043BB60BB6843F00043BB608E
:104268003B695A017B69134403F5A0631A46BB688E
:104278001360002318461C37BD465DF8047B704761
:104288000000F81F80B586B000AF78607B68FB60DF
:1042980000237B617868FFF783F910217868FFF7BE
:1042A800BBF97868FFF7DEF900233B611FE03B6943
:1042B8005A01FB68134403F5A0631B68BB60BB6825
:1042C80043F08043BB60BB6823F00043BB60BB681E
:1042D80023F40043BB603B695A01FB68134403F5B0
:1042E800A0631A46BB6813603B6901333B613B69B5
:1042F8000F2BDCD900233B6134E03B695A01FB6892
:10430800134403F5A0631B68BB60BB6843F080439C
:10431800BB60BB6843F00043BB60BB6823F4004349
:10432800BB603B695A01FB68134403F5A0631A4656
:10433800BB6813607B6901337B617B69B3F57A7F66
:104348000CD83B695A01FB68134403F5A0631B684A
:1043580003F00043B3F1004FECD000E000BF3B692D
:1043680001333B613B690F2BC7D9FB6803F58063B9
:104378001A464FF0FF3353617B684FF0FF325A61A2
:104388007868FFF7FCF8002318461837BD4680BD4B
:1043980090B589B004AF78600223FB730123022231
:1043A8000221786800F03AFC0346BB73BB7BFF2B05
:1043B80000F02A81BB7B1946786800F013FC7B6803
:1043C800D3F87843502002F0BFFF0346E3617B68CF
:1043D800D3F87833DB69BB60BB7B7A681A2101FBB1
:1043E80003F3134403F24A331B785BB2002B15DA4C
:1043F800BB7B7A681A2101FB03F3134403F24A33A7
:104408001A78BB685A70BB7B7A681A2101FB03F3E0
:10441800134403F553731A88BB685A81BB685B78E9
:104428001946786801F021FD03461A46BB681A70E0
:10443800BB681978BB6858787B6893F81C437B681D
:1044480093F81D33BA6852890292032201920093AD
:1044580023460246786801F0D9FCBB681B78002225
:104468001946786802F098FC002300220A2178682F
:1044780000F0D4FB0346BB73BB7BFF2B00F0C4806A
:10448800BB7B7A681A2101FB03F3134403F24A3316
:104498001B785BB2002B16DABB7B7A681A2101FB0A
:1044A80003F3134403F24A331A78BB68DA73BB7B0D
:1044B8007A681A2101FB03F3134403F553731A882E
:1044C800BB685A8315E0BB7B7A681A2101FB03F3AA
:1044D800134403F24A331A78BB689A73BB7B7A6831
:1044E8001A2101FB03F3134403F553731A88BB68BD
:1044F8001A83BB7B7A681A2101FB03F3134403F286
:1045080052331B785BB2002B16DABB7B7A681A2110
:1045180001FB03F3134403F252331A78BB68DA73CE
:10452800BB7B7A681A2101FB03F3134403F5557327
:104538001A88BB685A8315E0BB7B7A681A2101FB8D
:1045480003F3134403F252331A78BB689A73BB7BA4
:104558007A681A2101FB03F3134403F555731A888B
:10456800BB681A83BB689B7B1946786801F07DFCA1
:1045780003461A46BB685A73BB68DB7B19467868E2
:1045880001F073FC03461A46BB681A73BB68597B73
:10459800BB68987B7B6893F81C437B6893F81D3352
:1045A800BA68128B029202220192009323460246B5
:1045B800786801F02BFCBB68197BBB68D87B7B68EB
:1045C80093F81C437B6893F81D33BA68528B0292A8
:1045D80002220192009323460246786801F016FCF5
:1045E800BB68002283F84C20BB685B7B002219461D
:1045F800786802F0D1FBBB681B7B002219467868FB
:1046080002F0CAFB0023FB73FB7B18461437BD4638
:1046180090BD80B584B000AF78607B68D3F87833FC
:10462800DB69FB60FB681B78002B0ED0FB681B78EE
:104638001946786801F009FCFB681B781946786808
:1046480001F031FCFB6800221A70FB681B7B002B11
:104658000ED0FB681B7B1946786801F0F6FBFB68F7
:104668001B7B1946786801F01EFCFB6800221A7350
:10467800FB685B7B002B0ED0FB685B7B1946786878
:1046880001F0E3FBFB685B7B1946786801F00BFCE3
:10469800FB6800225A737B68D3F87833DB69002BF8
:1046A8000BD07B68D3F87833DB69184602F054FEE8
:1046B8007B68D3F878330022DA6100231846103774
:1046C800BD4680BD80B584B000AF78600223FB731F
:1046D8007B68D3F87833DB69BB60BB684033194625
:1046E800786800F0B2F80346FB73FB7B002B05D11A
:1046F8007B68D3F8C833022178689847FB7B184653
:104708001037BD4680BD000080B584B000AF78602A
:104718000123FB730023BB737B68D3F87833DB6911
:10472800BB60BB6893F84C30042B77D801A252F8D1
:1047380023F000BF51470008574700088747000883
:10474800FB470008094800080023FB736DE0BB68BD
:104758009B6C1946786800F097F80346BB73BB7BDF
:10476800002B04D1BB68022283F84C2058E0BB7BA5
:10477800012B55D0BB68042283F84C2050E0BB685D
:1047880040331946786800F060F80346BB73BB7B7A
:10479800002B26D1BB68002283F84C20BB6893F815
:1047A8004420BB689B6C1B799A423BD1BB6893F849
:1047B8004620BB689B6C9B799A4233D1BB6893F8BF
:1047C8004520BB689B6C5B799A422BD1BB681A6CFD
:1047D800BB689B6C1B689A4224D1786800F05AF930
:1047E80020E0BB7B012B1DD0BB68042283F84C2042
:1047F80018E0786800F067F8786800F0DCF814E0F2
:104808000021786800F0CEFE0346BB73BB7B002B0B
:104818000AD1BB68002283F84C2005E000BF04E001
:1048280000BF02E000BF00E000BFFB7B1846103766
:10483800BD4680BD80B483B000AF786000231846C1
:104848000C37BD465DF8047B704780B582B000AF79
:10485800786039607B68A1221A747B6821225A74B7
:104868007B6800225A827B6800229A827B68072232
:10487800DA823B6807221946786801F073F8034624
:1048880018460837BD4680BD80B582B000AF786055
:1048980039607B6821221A747B6820225A747B68ED
:1048A80000225A827B6800229A827B680722DA8279
:1048B8003B6807221946786801F054F80346184601
:1048C8000837BD4680BD80B586B002AF78607B688A
:1048D800D3F87833DB69FB600023FB72FB6893F83D
:1048E8004D30012B02D0022B25D060E0FB685B6ABB
:1048F800FA68128B93420CD9FB68D969FB681A8B4A
:10490800FB68587B012300930346786801F03BFA63
:104918000CE0FB68D969FB685B6A9AB2FB68587B54
:10492800012300930346786801F02DFAFB68022200
:1049380083F84D203BE0FB685B7B1946786802F002
:1049480001FA0346FB72FB7A012B28D1FB685B6AEC
:10495800FA68128B93420ED9FB685B6AFA68128B6D
:104968009A1AFB685A62FB68DB69FA68128B1A4468
:10497800FB68DA6102E0FB6800225A62FB685B6A46
:10498800002B04D0FB68012283F84D200EE0FB6861
:10499800002283F84D20786800F068F806E0FB7A7A
:1049A800022B03D1FB68012283F84D2000BF00BF12
:1049B8001037BD4680BD80B586B000AF78607B6893
:1049C800D3F87833DB697B610023FB747B6993F848
:1049D8004E30032B02D0042B0ED043E07B69196ABA
:1049E8007B695A8B7B691B7B786801F0F1F97B69DD
:1049F800042283F84E2035E07B691B7B19467868D2
:104A080002F0A0F90346FB74FB7C012B29D17B69DA
:104A18001B7B1946786802F003F9F8607B699A6A8B
:104A2800FB689A4216D07B695B8B1A46FB689A42F0
:104A380010D27B699A6AFB68D21A7B699A627B6991
:104A48001A6AFB681A447B691A627B69032283F835
:104A58004E2006E07B69002283F84E20786800F03B
:104A68000FF800BF00BF1837BD4680BD80B483B0C3
:104A780000AF786000BF0C37BD465DF8047B704717
:104A880080B483B000AF786000BF0C37BD465DF8D6
:104A9800047B704780B483B000AF786000BF0C37E8
:104AA800BD465DF8047B704780B584B000AFF86000
:104AB800B9601346FB71FB68002B01D1022319E092
:104AC800FB68FA7983F8C023FB680022C3F87823CF
:104AD800FB680022C3F87C23F86800F00FF8BB6875
:104AE800002B03D0FB68BA68C3F8C823F86801F044
:104AF800E5FF002318461037BD4680BD80B485B059
:104B080000AF78600023FB6008E07B68FA68E03259
:104B1800002143F82210FB680133FB60FB680E2B71
:104B2800F3D90023FB6009E07A68FB68134403F5B6
:104B38008E7300221A70FB680133FB60FB68B3F5C3
:104B4800007FF1D37B6800221A707B6800225A70BC
:104B58007B6801229A707B680022C3F8BC237B68BB
:104B680001221A767B6840229A717B6800225A7665
:104B78007B68002283F81C237B68012283F81D23AD
:104B8800002318461437BD465DF8047B704780B48F
:104B980085B000AF786039600023FB733B68002B59
:104BA80017D07B68D3F87C33002B0FD17B68D3F800
:104BB8007C33591C7A68C2F87C137A68DC339B0012
:104BC80013443A685A600023FB7304E00223FB7322
:104BD80001E00223FB73FB7B18461437BD465DF8E2
:104BE800047B704780B485B000AF78600B46FB70DB
:104BF8000023FB737B6893F83833FA789A4204D21F
:104C08007B68FA7883F8202301E00223FB73FB7B9F
:104C180018461437BD465DF8047B704780B487B0EA
:104C280000AF7860084611461A460346FB700B46EB
:104C3800BB7013467B700023FB7500233B617B68C8
:104C480003F54D73FB6025E0FB7D1A2202FB03F39D
:104C58000833FA68134402333B613B695B79FA789D
:104C68009A4202D0FB78FF2B11D13B699B79BA7825
:104C78009A4202D0BB78FF2B09D13B69DB797A785D
:104C88009A4202D07B78FF2B01D1FB7D06E0FB7DA9
:104C98000133FB75FB7D012BD6D9FF2318461C3742
:104CA800BD465DF8047B704780B582B000AF786080
:104CB800786801F03FFF0121786802F056F8002378
:104CC80018460837BD4680BD80B588B004AF786007
:104CD8000223BB730023FB73786800F0ECFA0346E9
:104CE800002B0CD17B681B78DBB2002B07D07B68CC
:104CF8001B78DBB2032B02D07B6803221A707B6817
:104D08001B78DBB20B2B00F24C8101A252F823F086
:104D1800494D00086B4D00087F4D0008854F00087D
:104D2800AB4F00080D4E00083B4F00083D4E0008F1
:104D38005D4E00087D4E0008AB4E00086D4F000820
:104D48007B6893F81E33DBB2002B00F02C817B6864
:104D580001221A70C82002F052F8786801F045FF65
:104D680021E17B6893F81F33012B40F01E817B689B
:104D780002221A7019E1642002F041F8786801F003
:104D88000FFF03461A467B6883F81D237B680522BC
:104D98001A700021786801F068F803461A467B68A3
:104DA8005A718021786801F060F803461A467B68DA
:104DB8001A717B6819797B6893F81C037B6893F8F0
:104DC8001D337A68927992B202920022019200937E
:104DD80003468022786801F019F87B6859797B6866
:104DE80093F81C037B6893F81D337A68927992B222
:104DF800029200220192009303460022786801F093
:104E080005F8E3E0786800F0E7F80346002B40F087
:104E1800CE807B68002283F820237B6893F83333A5
:104E2800012B03D17B6808221A70C0E07B68072237
:104E38001A70BCE07B68D3F8C833002B00F0B98047
:104E48007B68D3F8C8330121786898477B680822C3
:104E58001A70AEE07B6893F839339BB219467868CC
:104E680000F059FB0346002B40F0A5807B6809221F
:104E78001A70A0E07B6893F83B3303F02003002B03
:104E88000BD00121786800F069FB0346002B40F045
:104E980094807B680A221A708FE07B680A221A7055
:104EA8008BE07B68D3F87C33002B00F088807B682C
:104EB8000022C3F878230023FB7317E0FB7B7A6892
:104EC800DC339B0013445B681A797B6893F843339F
:104ED8009A4208D1FB7B7A68DC339B0013445A68FA
:104EE8007B68C3F87823FB7B0133FB73FB7B002BC8
:104EF800E4D07B68D3F87833002B16D07B68D3F8DE
:104F080078339B68786898470346002B09D17B68FB
:104F180006221A707B68D3F8C8330321786898474B
:104F28004DE07B680D221A7049E07B680D221A70EB
:104F380045E07B68D3F87833002B0FD07B68D3F833
:104F480078331B69786898470346BB73BB7BDBB231
:104F5800002B36D17B680B221A7032E07B680D2259
:104F68001A702EE07B68D3F87833002B2BD07B683F
:104F7800D3F878335B697868984724E07868FFF756
:104F8800BDFD7B68D3F87833002B1ED07B68D3F83F
:104F98007833DB68786898477B680022C3F8782301
:104FA80013E000BF12E000BF10E000BF0EE000BF3A
:104FB8000CE000BF0AE000BF08E000BF06E000BF49
:104FC80004E000BF02E000BF00E000BF0023184675
:104FD8001037BD4680BD00BF80B588B004AF78608B
:104FE8000123FB737B685B78072B00F2F88001A232
:104FF80052F823F01D5000088F500008A7500008F1
:105008001D510008335100084F5100088351000812
:10501800B75100080821786800F0ADF90346002B65
:1050280040F0DF807B6893F829237B689A717B685E
:1050380001225A707B6819797B6893F81C037B6896
:1050480093F81D337A68927992B202920022019203
:10505800009303468022786800F0D8FE7B6859796F
:105068007B6893F81C037B6893F81D337A68927900
:1050780092B20292002201920093034600227868BD
:1050880000F0C4FEADE01221786800F074F9034620
:10509800002B40F0A8807B6802225A70A3E001210F
:1050A800786800F014FA0346002B40F09E80022036
:1050B80001F0A5FE7B68012283F81C237B6803228C
:1050C8005A707B6819797B6893F81C037B6893F89E
:1050D8001D337A68927992B202920022019200936B
:1050E80003468022786800F091FE7B6859797B68D6
:1050F80093F81C037B6893F81D337A68927992B20F
:10510800029200220192009303460022786800F080
:105118007DFE6AE00921786800F055F90346002B06
:1051280065D17B6804225A7061E07B68B3F8363336
:105138001946786800F047F90346002B59D17B6877
:1051480005225A7055E07B6893F83033002B10D055
:105158007B6893F830137B6803F58E72FF237868B9
:1051680000F055F90346002B45D17B6806225A709A
:1051780041E07B6806225A703DE07B6893F8313342
:10518800002B10D07B6893F831137B6803F58E727F
:10519800FF23786800F03BF90346002B2DD17B688C
:1051A80007225A7029E07B6807225A7025E07B683D
:1051B80093F83233002B0FD07B6893F832137B6857
:1051C80003F58E72FF23786800F021F90346002B5F
:1051D80015D10023FB7312E00023FB730FE000BF1F
:1051E8000EE000BF0CE000BF0AE000BF08E000BF0F
:1051F80006E000BF04E000BF02E000BF00E000BF1F
:10520800FB7B18461037BD4680BD00BF80B483B015
:1052180000AF786039607B683A68C3F8BC2300BF88
:105228000C37BD465DF8047B704780B582B000AF8F
:1052380078607B68D3F8BC335A1C7B68C3F8BC23FE
:10524800786800F004F800BF0837BD4680BD80B517
:1052580082B000AF78607B681B78DBB20B2B0AD179
:105268007B68D3F87833002B05D07B68D3F8783384
:105278009B697868984700BF0837BD4680BD80B4F1
:1052880083B000AF78607B68012283F81F2300BFDA
:105298000C37BD465DF8047B704780B483B000AF1F
:1052A80078607B68002283F81F2300BF0C37BD4657
:1052B8005DF8047B704780B483B000AF78607B688A
:1052C80093F81F3318460C37BD465DF8047B7047CA
:1052D80080B582B000AF78607B681B78DBB2002BAA
:1052E8000FD17B68012283F81E237B68D3F8C8336B
:1052F800002B0ED07B68D3F8C83304217868984710
:1053080007E07B6893F81F33012B02D17B680222E8
:105318001A70002318460837BD4680BD80B582B094
:1053280000AF7860786801F020FC7B681B7919462B
:10533800786800F0B8FD7B685B791946786800F0FA
:10534800B2FD7B68002283F81E237B68D3F8C8333C
:10535800002B05D07B68D3F8C833052178689847B7
:10536800786801F0E7FB7B6803221A70002318466F
:105378000837BD4680BD80B586B002AF78600B4661
:10538800FB707B6803F58E72FB789BB20093134623
:105398004FF480720021786800F064F80346FB73CC
:1053A800FB7B002B0AD17B6803F222307B6803F574
:1053B8008E73FA7892B2194600F018F9FB7B1846FA
:1053C8001037BD4680BD80B586B002AF78600B4609
:1053D8007B807B681C33FB607B880093FB684FF401
:1053E80000720021786800F03DF80346FB72FB7AF2
:1053F800002B07D17B6803F54D737A88F968184646
:1054080000F064F9FB7A18461037BD4680BD80B5B8
:1054180088B002AFF8607A601A460B46FB721346F2
:105428003B81FB7A9BB243F440739AB2FB6803F565
:105438008E713B8900930B460021F86800F012F842
:105448000346FB75FB7D002B07D1FB6803F58E73C4
:105458003A897968184600F037FAFB7D18461837FC
:10546800BD4680BD80B584B000AFF8607B600B4658
:10547800FB7213463B81FB689B78012B1CD1FB7A9E
:1054880063F07F03DAB2FB681A74FB6806225A7469
:10549800FB683A895A823B8903F47F43B3F5407F1E
:1054A80004D1FB6840F209429A8202E0FB680022BC
:1054B8009A82FB683A8BDA823B8B1A467968F868DD
:1054C80000F050FA034618461037BD4680BD80B537
:1054D80082B000AF78600B46FB707B689B78012B2D
:1054E8000FD17B6800221A747B6805225A74FB78F6
:1054F8009AB27B685A827B6800229A827B68002273
:10550800DA8200220021786800F02CFA0346184657
:105518000837BD4680BD80B582B000AF78600B46C5
:105528007B807B689B78012B0ED17B6800221A74E4
:105538007B6809225A747B687A885A827B680022C1
:105548009A827B680022DA8200220021786800F0C3
:1055580009FA034618460837BD4680BD80B582B0B3
:1055680000AF78600B46FB707B689B78012B0FD1EE
:105578007B6800221A747B6803225A74FB789AB2FB
:105588007B685A827B6800229A827B680022DA82D2
:1055980000220021786800F0E5F90346184608372C
:1055A800BD4680BD80B582B000AF78600B46FB7009
:1055B8007B689B78012B0FD17B6802221A747B6869
:1055C80001225A747B6800225A82FB789AB27B685F
:1055D8009A827B680022DA8200220021786800F033
:1055E800C1F9034618460837BD4680BD80B485B06A
:1055F80000AFF860B9601346FB80BB681A78FB6897
:105608001A70BB685A78FB685A70BB6802331B78FB
:105618009AB2BB6803331B789BB21B029BB213433D
:105628009AB2FB685A80BB681A79FB681A71BB6822
:105638005A79FB685A71BB689A79FB689A71BB689A
:10564800DA79FB68DA71FB88082B39D9BB6808332B
:105658001B789AB2BB6809331B789BB21B029BB2BA
:1056680013439AB2FB681A81BB680A331B789AB253
:10567800BB680B331B789BB21B029BB213439AB2D5
:10568800FB685A81BB680C331B789AB2BB680D3330
:105698001B789BB21B029BB213439AB2FB689A8198
:1056A800BB689A7BFB689A73BB68DA7BFB68DA7322
:1056B800BB681A7CFB681A74BB685A7CFB685A740E
:1056C80000BF1437BD465DF8047B704780B58AB0CB
:1056D80000AFF860B9601346FB80BB687B620023AB
:1056E80087F82330002387F82230BB687B62BB68C9
:1056F8001A78FB681A70BB685A78FB685A70BB68DE
:1057080002331B789AB2BB6803331B789BB21B0227
:105718009BB213439AB2FB685A80BB681A79FB683C
:105728001A71BB685A79FB685A71BB689A79FB6829
:105738009A71BB68DA79FB68DA71BB681A7AFB6818
:105748001A72FB88092B5FD90923FB820023FB61AE
:1057580051E007F116031946786A00F0E8F8786214
:105768007B6A5B78042B46D197F823301A2202FB18
:1057780003F30833FA6813440233FB61796AF86962
:1057880000F046F8002387F822300023BB6122E0AE
:1057980007F116031946786A00F0C9F878627B6A3F
:1057A8005B78052B17D197F8233097F82220013220
:1057B800D2001A2101FB03F313440833FA68134497
:1057C8000433BB61796AB86900F051F897F8223060
:1057D800013387F82230FB691B7997F822209A4217
:1057E80004D2FB685A88FB8A9A42D1D897F82330AA
:1057F800013387F8233097F82330012B04D8FB684E
:105808005A88FB8A9A42A4D800BF2837BD4680BD73
:1058180080B483B000AF786039603B681A787B68E1
:105828001A703B685A787B685A703B689A787B682C
:105838009A703B68DA787B68DA703B681A797B681B
:105848001A713B685A797B685A713B689A797B6808
:105858009A713B68DA797B68DA713B681A7A7B68F7
:105868001A7200BF0C37BD465DF8047B704780B4E0
:1058780083B000AF786039603B681A787B681A702B
:105888003B685A787B685A703B689A787B689A704C
:105898003B68DA787B68DA703B6804331B789AB225
:1058A8003B6805331B789BB21B029BB213439AB229
:1058B8007B689A803B689A797B689A7100BF0C373D
:1058C800BD465DF8047B704780B487B000AFF860D0
:1058D800B9601346FB80FB6801331B78032B20D18A
:1058E800FB681B789A1EFB88934228BF1346BB822D
:1058F800FB680233FB600023FB820BE0FB8AFA683B
:1059080013441A78BB681A70BB680133BB60FB8A02
:105918000233FB82FA8ABB8A9A42EFD3BB68002221
:105928001A7000BF1C37BD465DF8047B704780B411
:1059380085B000AF786039603B681A887B681B784F
:105948009BB213449AB23B681A807B681B781A464C
:105958007B681344FB60FB6818461437BD465DF846
:10596800047B704780B586B000AFF860B960134615
:10597800FB800123FB75FB689B78012B02D0022B6F
:105988000FD034E0FB68BA689A60FB68FA889A819D
:10599800FB6801221A76FB6802229A700123FB75C4
:1059A80025E0F86800F028F80346FB75FB7D002B1E
:1059B80008D1FB6801229A70FB6800221A7600233E
:1059C800FB7513E0FB7D032B08D1FB6801229A705D
:1059D800FB6800221A760323FB7507E0FB7D022B88
:1059E80004D1FB6801229A700223FB7500BFFB7D7E
:1059F80018461837BD4680BD80B586B002AF7860BE
:105A08000123FB730023BB737B681B7E013B0A2BBE
:105A180000F24C8101A252F823F000BF515A00084D
:105A28006B5A0008D55A0008FB5A0008335B000877
:105A38005F5B0008B15B0008D35B00080F5C0008DF
:105A4800375C0008755C00087B6803F110017B680F
:105A58005B791A46786800F039F97B6802221A7671
:105A68002FE17B685B791946786801F06BF903468A
:105A7800BB73BB7B012B1ED17B681B7C23F07F0390
:105A88007B737B68DB8A002B0AD07B7B802B03D15E
:105A98007B6803221A760BE17B6805221A7607E1F8
:105AA8007B7B802B03D17B6809221A7600E17B6817
:105AB80007221A76FCE0BB7B042B03D0BB7B022BAE
:105AC80040F0F6807B680B221A76F1E07B68D3F809
